:100000000C942A000C943F000C943F000C943F0089
:100010000C943F000C943F000C943F000C943F0064
:100020000C943F000C943F000C943F000C943F0054
:100030000C943F000C943F000C943F000C943F0044
:100040000C943F000C943F000C943F000C943F0034
:100050000C943F0011241FBECFE5D8E0DEBFCDBF1A
:1000600010E0A0E6B0E0E2EAF1E002C005900D92F7
:10007000A836B107D9F70E9453000C94CF000C9416
:100080000000CF93C62FA89A0E94C6008C2F0E9412
:10009000C600A898CF910895A89A0E94C6000E9411
:1000A000CA00A89808950E94740080EA87BB8FEF69
:1000B0008ABB81BBA09A65E180E80E94410087EC81
:1000C0009FEA0197F1F700C0000080E00E944C0019
:1000D0008BBB87EC9FEA0197F1F700C0000082E03C
:1000E0000E944C0082BBFFCF80916000813011F4F0
:1000F0006E9A03C0811101C06E98809162008130B8
:1001000011F46C9A03C0811101C06C988091610058
:10011000813011F46F9A03C0811101C06F988091F2
:100120006300811103C06A986B980EC0813019F486
:100130006A9A6B9809C0823019F46B9A6A9804C065
:10014000833011F46B9A6A9A80916500811109C01D
:1001500080916400843080F49DB18370892B8DB9C7
:100160000BC0813049F480916400833028F4709A88
:100170009DB18370892B8DB980916600811102C079
:100180006D980895813009F46D9A08958FB9779B21
:10019000FECF08951FB8779BFECF8FB10895F894D6
:0201A000FFCF8F
:0801A20001000103040000004C
:00000001FF
