S0120000536D6172745F686F6D652E7372656303
S11300000C942A000C9447000C9447000C9447006D
S11300100C9447000C9447000C9447000C94470040
S11300200C9447000C9447000C9447000C94470030
S11300300C9447000C9447000C9447000C94470020
S11300400C9447000C9447000C9447000C94470010
S11300500C94470011241FBECFE5D8E0DEBFCDBF0E
S113006010E0A0E6B0E0E6E2F2E002C005900D92F6
S1130070AE36B107D9F720E0AEE6B0E001C01D927C
S1130080AF36B207E1F70E9449000C9411010C94B9
S113009000000E94660060E080E00E94D2002FE32E
S11300A08DE093E0215080409040E1F700C00000D3
S11300B06FEF80E00E94D2002FE38DE093E02150A7
S11300C080409040E1F700C00000E5CFE091680077
S11300D0E43008F066C080916900883008F061C09F
S11300E090916A0091113FC0F0E0EE0FFF1FE05ABB
S11300F0FF4FA081B181FD01429121E030E0B901BF
S113010002C0660F771F8A95E2F7CB01262F209550
S11301102423208320916B00211106C09C91892BFC
S11301208C9380B78B7F80BF80916B008130D9F432
S1130130A8E6B0E0EC91F0E0EE0FFF1FE05AFF4FAD
S11301400190F081E02D208181E090E011960C90E7
S113015002C0880F991F0A94E2F780958223808356
S113016080B7846080BF80916A008130B9F4A8E6CA
S1130170B0E0EC91F0E0EE0FFF1FE05AFF4F01906A
S1130180F081E02D229181E090E011960C9002C064
S1130190880F991F0A94E2F7822B808381E0809371
S11301A06E00089581113CC080916A008130C1F5D0
S11301B080916E008130A1F5611119C0A8E6B0E00C
S11301C0EC91F0E0EE0FFF1FE05AFF4F0190F08139
S11301D0E02D208181E090E011960C9002C0880F00
S11301E0991F0A94E2F780958223808308956F3FD4
S11301F0B9F4A8E6B0E0EC91F0E0EE0FFF1FE05A8E
S1130200FF4F0190F081E02D208181E090E0119674
S11302100C9002C0880F991F0A94E2F7822B808306
S10902200895F894FFCFDD
S11102263B00380035003200000101010000E9
S9030000FC
