S0120000536D6172745F686F6D652E7372656303
S11300000C942A000C9447000C9447000C9447006D
S11300100C9447000C9447000C9447000C94470040
S11300200C9447000C9447000C9447000C94470030
S11300300C9447000C9447000C9447000C94470020
S11300400C9447000C9447000C9447000C94470010
S11300500C94470011241FBECFE5D8E0DEBFCDBF0E
S113006010E0A0E6B0E0EAE5F1E002C005900D92F0
S1130070AE36B107D9F720E0AEE6B0E001C01D927C
S1130080AE36B207E1F70E9449000C94AB000C9421
S113009000000E94660060E080E00E9490002FE96A
S11300A086E891E0215080409040E1F700C00000D4
S11300B06FE080E00E9490002FE986E891E02150F3
S11300C080409040E1F700C00000E5CFCF93DF937C
S11300D0E0916800E43008F5F0E0EE0FFF1FE05A0D
S11300E0FF4F0190F081E02DDF018E91C8E6D0E052
S11300F03981932F909589238C932C918A81432F56
S11301004823242B2C9320819223908390812B814C
S1130110232380958223892B8083DF91CF910895B7
S1130120811118C0A8E6B0E0EC91F0E0EE0FFF1FDB
S1130130E05AFF4F0190F081E02D808111962C91BF
S11301401197922F9095892312969C91922369235B
S10D0150682B60830895F894FFCF34
S111015A3B00380035003200010F0F0000009A
S9030000FC
